S01B000055415254746F50435F41544D656761333238702E73726563DC
S11300000C9434000C943E000C943E000C943E007E
S11300100C943E000C943E000C943E000C943E0064
S11300200C943E000C943E000C943E000C943E0054
S11300300C943E000C943E000C943E000C943E0044
S11300400C943E000C943E000C943E000C943E0034
S11300500C943E000C943E000C943E000C943E0024
S11300600C943E000C943E0011241FBECFEFD8E048
S1130070DEBFCDBF0E9440000C9490000C940000A1
S11300808DEF84B915B817B81092C50083E080933A
S1130090C40086E08093C20088E08093C10080E6BB
S11300A080937C0087E880937A00EAE7F0E080811F
S11300B08064808380917A0086FDFCCF90917900E2
S11300C08091C00085FFFCCF8DEC989F812D112479
S11300D0869586958695382F330F232F220F220F6E
S11300E0230F921B905D9093C600982F8111E8CF47
S11300F08091C00085FFFCCF8AE08093C600809188
S1130100C00085FFFCCF8DE08093C6002FEF80E711
S113011092E0215080409040E1F700C00000C5CF3C
S1070120F894FFCF7D
S9030000FC
